{
  "_format": "hh-sol-artifact-1",
  "contractName": "YourContract",
  "sourceName": "contracts/YourContract.sol",
  "abi": [
    {
      "anonymous": false,
      "inputs": [
        {
          "indexed": false,
          "internalType": "bytes32",
          "name": "fixtureId",
          "type": "bytes32"
        },
        {
          "indexed": false,
          "internalType": "string",
          "name": "gameId",
          "type": "string"
        },
        {
          "indexed": false,
          "internalType": "uint256",
          "name": "date",
          "type": "uint256"
        }
      ],
      "name": "NewFixture",
      "type": "event"
    },
    {
      "anonymous": false,
      "inputs": [
        {
          "indexed": true,
          "internalType": "address",
          "name": "previousOwner",
          "type": "address"
        },
        {
          "indexed": true,
          "internalType": "address",
          "name": "newOwner",
          "type": "address"
        }
      ],
      "name": "OwnershipTransferred",
      "type": "event"
    },
    {
      "anonymous": false,
      "inputs": [
        {
          "indexed": false,
          "internalType": "address",
          "name": "player",
          "type": "address"
        }
      ],
      "name": "WithdrawWinnings",
      "type": "event"
    },
    {
      "inputs": [],
      "name": "balanceOfPot",
      "outputs": [
        {
          "internalType": "uint256",
          "name": "",
          "type": "uint256"
        }
      ],
      "stateMutability": "view",
      "type": "function"
    },
    {
      "inputs": [],
      "name": "calculateWinners",
      "outputs": [],
      "stateMutability": "nonpayable",
      "type": "function"
    },
    {
      "inputs": [
        {
          "internalType": "string",
          "name": "_game",
          "type": "string"
        },
        {
          "internalType": "uint256",
          "name": "_matchDate",
          "type": "uint256"
        }
      ],
      "name": "createFixture",
      "outputs": [
        {
          "internalType": "bytes32",
          "name": "",
          "type": "bytes32"
        }
      ],
      "stateMutability": "nonpayable",
      "type": "function"
    },
    {
      "inputs": [
        {
          "internalType": "uint256",
          "name": "",
          "type": "uint256"
        }
      ],
      "name": "fixtureIds",
      "outputs": [
        {
          "internalType": "bytes32",
          "name": "",
          "type": "bytes32"
        }
      ],
      "stateMutability": "view",
      "type": "function"
    },
    {
      "inputs": [
        {
          "internalType": "bytes32",
          "name": "",
          "type": "bytes32"
        }
      ],
      "name": "fixtures",
      "outputs": [
        {
          "internalType": "string",
          "name": "gameId",
          "type": "string"
        },
        {
          "internalType": "uint256",
          "name": "date",
          "type": "uint256"
        },
        {
          "internalType": "uint16",
          "name": "homeScore",
          "type": "uint16"
        },
        {
          "internalType": "uint16",
          "name": "awayScore",
          "type": "uint16"
        },
        {
          "internalType": "enum YourContract.resultType",
          "name": "result",
          "type": "uint8"
        }
      ],
      "stateMutability": "view",
      "type": "function"
    },
    {
      "inputs": [],
      "name": "getMatchCount",
      "outputs": [
        {
          "internalType": "uint256",
          "name": "count",
          "type": "uint256"
        }
      ],
      "stateMutability": "view",
      "type": "function"
    },
    {
      "inputs": [
        {
          "internalType": "bytes32",
          "name": "_fixtureId",
          "type": "bytes32"
        },
        {
          "internalType": "uint16",
          "name": "_homeScore",
          "type": "uint16"
        },
        {
          "internalType": "uint16",
          "name": "_awayScore",
          "type": "uint16"
        }
      ],
      "name": "makePrediction",
      "outputs": [],
      "stateMutability": "payable",
      "type": "function"
    },
    {
      "inputs": [],
      "name": "owner",
      "outputs": [
        {
          "internalType": "address",
          "name": "",
          "type": "address"
        }
      ],
      "stateMutability": "view",
      "type": "function"
    },
    {
      "inputs": [
        {
          "internalType": "address",
          "name": "",
          "type": "address"
        }
      ],
      "name": "playerToAmountDue",
      "outputs": [
        {
          "internalType": "uint256",
          "name": "",
          "type": "uint256"
        }
      ],
      "stateMutability": "view",
      "type": "function"
    },
    {
      "inputs": [
        {
          "internalType": "address",
          "name": "",
          "type": "address"
        },
        {
          "internalType": "uint256",
          "name": "",
          "type": "uint256"
        }
      ],
      "name": "playerToPrediction",
      "outputs": [
        {
          "internalType": "bytes32",
          "name": "fixtureId",
          "type": "bytes32"
        },
        {
          "internalType": "uint16",
          "name": "homeScore",
          "type": "uint16"
        },
        {
          "internalType": "uint16",
          "name": "awayScore",
          "type": "uint16"
        },
        {
          "internalType": "enum YourContract.resultType",
          "name": "result",
          "type": "uint8"
        }
      ],
      "stateMutability": "view",
      "type": "function"
    },
    {
      "inputs": [
        {
          "internalType": "uint256",
          "name": "",
          "type": "uint256"
        }
      ],
      "name": "players",
      "outputs": [
        {
          "internalType": "address",
          "name": "",
          "type": "address"
        }
      ],
      "stateMutability": "view",
      "type": "function"
    },
    {
      "inputs": [],
      "name": "renounceOwnership",
      "outputs": [],
      "stateMutability": "nonpayable",
      "type": "function"
    },
    {
      "inputs": [
        {
          "internalType": "address",
          "name": "newOwner",
          "type": "address"
        }
      ],
      "name": "transferOwnership",
      "outputs": [],
      "stateMutability": "nonpayable",
      "type": "function"
    },
    {
      "inputs": [
        {
          "internalType": "bytes32",
          "name": "_fixtureId",
          "type": "bytes32"
        },
        {
          "internalType": "uint16",
          "name": "_homeScore",
          "type": "uint16"
        },
        {
          "internalType": "uint16",
          "name": "_awayScore",
          "type": "uint16"
        }
      ],
      "name": "updateResultForMatch",
      "outputs": [],
      "stateMutability": "nonpayable",
      "type": "function"
    },
    {
      "inputs": [
        {
          "internalType": "uint256",
          "name": "",
          "type": "uint256"
        }
      ],
      "name": "winners",
      "outputs": [
        {
          "internalType": "address",
          "name": "",
          "type": "address"
        }
      ],
      "stateMutability": "view",
      "type": "function"
    },
    {
      "inputs": [],
      "name": "withdrawWinnings",
      "outputs": [],
      "stateMutability": "nonpayable",
      "type": "function"
    }
  ],
  "bytecode": "0x608060405260006100176001600160e01b0361006616565b600080546001600160a01b0319166001600160a01b0383169081178255604051929350917f8be0079c531659141344cd1fd0a4f28419497f9722a3daafe3b4186f6b6457e0908290a35061006a565b3390565b61157c806100796000396000f3fe6080604052600436106100f35760003560e01c80638c9cd2aa1161008a578063cc42e83a11610059578063cc42e83a146103b8578063f2fde38b146103cd578063f71d96cb14610400578063f81a70741461042a576100f3565b80638c9cd2aa146102ee5780638da5cb5b1461032a578063a2fb11751461035b578063ba09d9d014610385576100f3565b8063715018a6116100c6578063715018a614610285578063761897d51461029a578063899e0fc9146102c45780638c4f7dae146102d9576100f3565b8063011bc2e1146100f85780631bf37d291461010f57806353fc7a6a146101915780636280eb5c146101c0575b600080fd5b34801561010457600080fd5b5061010d610506565b005b34801561011b57600080fd5b506101486004803603604081101561013257600080fd5b506001600160a01b038135169060200135610783565b604051808581526020018461ffff1661ffff1681526020018361ffff1661ffff16815260200182600381111561017a57fe5b60ff16815260200194505050505060405180910390f35b61010d600480360360608110156101a757600080fd5b5080359061ffff602082013581169160400135166107d4565b3480156101cc57600080fd5b50610273600480360360408110156101e357600080fd5b810190602081018135600160201b8111156101fd57600080fd5b82018360208201111561020f57600080fd5b803590602001918460018302840111600160201b8311171561023057600080fd5b91908080601f0160208091040260200160405190810160405280939291908181526020018383808284376000920191909152509295505091359250610a44915050565b60408051918252519081900360200190f35b34801561029157600080fd5b5061010d610d13565b3480156102a657600080fd5b50610273600480360360208110156102bd57600080fd5b5035610dbf565b3480156102d057600080fd5b50610273610ddd565b3480156102e557600080fd5b50610273610e1d565b3480156102fa57600080fd5b5061010d6004803603606081101561031157600080fd5b5080359061ffff60208201358116916040013516610e5c565b34801561033657600080fd5b5061033f610f65565b604080516001600160a01b039092168252519081900360200190f35b34801561036757600080fd5b5061033f6004803603602081101561037e57600080fd5b5035610f74565b34801561039157600080fd5b50610273600480360360208110156103a857600080fd5b50356001600160a01b0316610f9b565b3480156103c457600080fd5b5061010d610fad565b3480156103d957600080fd5b5061010d600480360360208110156103f057600080fd5b50356001600160a01b031661108b565b34801561040c57600080fd5b5061033f6004803603602081101561042357600080fd5b503561118d565b34801561043657600080fd5b506104546004803603602081101561044d57600080fd5b503561119a565b60405180806020018681526020018561ffff1661ffff1681526020018461ffff1661ffff16815260200183600381111561048a57fe5b60ff168152602001828103825287818151815260200191508051906020019080838360005b838110156104c75781810151838201526020016104af565b50505050905090810190601f1680156104f45780820380516001836020036101000a031916815260200191505b50965050505050505060405180910390f35b61050e611260565b6001600160a01b031661051f610f65565b6001600160a01b031614610568576040805162461bcd60e51b815260206004820181905260248201526000805160206114fd833981519152604482015290519081900360640190fd5b6000805b60015481101561069b57600560006001838154811061058757fe5b60009182526020808320909101546001600160a01b03168352820192909252604001812092505b825481101561069257600460008483815481106105c757fe5b906000526020600020906002020160000154815260200190815260200160002060020160049054906101000a900460ff16600381111561060357fe5b83828154811061060f57fe5b906000526020600020906002020160010160049054906101000a900460ff16600381111561063957fe5b141561068a5760026001838154811061064e57fe5b60009182526020808320909101548354600181018555938352912090910180546001600160a01b0319166001600160a01b039092169190911790555b6001016105ae565b5060010161056c565b506002546000906106aa610ddd565b816106b157fe5b04905060005b600254811015610706578160066000600284815481106106d357fe5b60009182526020808320909101546001600160a01b031683528201929092526040019020805490910190556001016106b7565b5060005b60035481101561077257600460006003838154811061072557fe5b906000526020600020015481526020019081526020016000206000808201600061074f91906113dc565b5060006001828101919091556002909101805464ffffffffff191690550161070a565b5061077f60036000611420565b5050565b6005602052816000526040600020818154811061079c57fe5b60009182526020909120600290910201805460019091015490925061ffff80821692506201000082041690600160201b900460ff1684565b600083815260046020526040902060010154610830576040805162461bcd60e51b81526020600482015260166024820152752334bc3a3ab9329024b21034b99034b73b30b634b21760511b604482015290519081900360640190fd5b600083815260046020526040902060010154421061087f5760405162461bcd60e51b815260040180806020018281038252602a81526020018061151d602a913960400191505060405180910390fd5b66038d7ea4c6800034116108da576040805162461bcd60e51b815260206004820152601a60248201527f4f6f7073202d20706c656173652070617920746f20706c617921000000000000604482015290519081900360640190fd5b33600090815260056020526040902054610930576001805480820182556000919091527fb10e2d527612073b26eecdfd717e6a320cf44b4afac2b0732d9fcbe2b7fa0cf60180546001600160a01b031916331790555b60008161ffff168361ffff16141561094a57506002610966565b8161ffff168361ffff16111561096257506000610966565b5060015b60056000336001600160a01b03166001600160a01b0316815260200190815260200160002060405180608001604052808681526020018561ffff1681526020018461ffff1681526020018360038111156109bc57fe5b905281546001818101845560009384526020938490208351600290930201918255928201519281018054604084015161ffff908116620100000263ffff0000199190961661ffff19909216919091171693909317808455606083015192939192919064ff000000001916600160201b836003811115610a3757fe5b0217905550505050505050565b6000610a4e611260565b6001600160a01b0316610a5f610f65565b6001600160a01b031614610aa8576040805162461bcd60e51b815260206004820181905260248201526000805160206114fd833981519152604482015290519081900360640190fd5b600083836040516020018080602001838152602001828103825284818151815260200191508051906020019080838360005b83811015610af2578181015183820152602001610ada565b50505050905090810190601f168015610b1f5780820380516001836020036101000a031916815260200191505b5060408051808303601f19018152828252805160209182012060a0840183528b84528184018b9052600084840181905260608501819052600360808601528181526004835292909220835180519399509397509550610b869450859350919091019061143e565b50602082015160018201556040820151600282018054606085015161ffff908116620100000263ffff0000199190941661ffff199092169190911716919091178082556080840151919064ff000000001916600160201b836003811115610be957fe5b0217905550506003805460018101825560009182527fc2575a0e9e593c00f959f8c92f12db2869c3395a3b0502d05e2516446f71f85b01839055604080518481529081018690526060602082810182815289519284019290925288517f7f97e7b5cbc9633e571cea757f009db12d73e8de0510aaad1531ee86d46f292d955086948a948a94909390926080850192918701918190849084905b83811015610c9a578181015183820152602001610c82565b50505050905090810190601f168015610cc75780820380516001836020036101000a031916815260200191505b5094505050505060405180910390a1610d0c6040518060400160405280601581526020017474686973206973206120636f6e736f6c65206c6f6760581b815250611264565b9392505050565b610d1b611260565b6001600160a01b0316610d2c610f65565b6001600160a01b031614610d75576040805162461bcd60e51b815260206004820181905260248201526000805160206114fd833981519152604482015290519081900360640190fd5b600080546040516001600160a01b03909116907f8be0079c531659141344cd1fd0a4f28419497f9722a3daafe3b4186f6b6457e0908390a3600080546001600160a01b0319169055565b60038181548110610dcc57fe5b600091825260209091200154905081565b6000610e1760405180604001604052806016815260200175436f6e74726163742062616c616e636520697320257360501b8152504761130d565b50475b90565b6000610e5560405180604001604052806015815260200174636f756e74696e672074686520666978747572657360581b815250611264565b5060035490565b610e64611260565b6001600160a01b0316610e75610f65565b6001600160a01b031614610ebe576040805162461bcd60e51b815260206004820181905260248201526000805160206114fd833981519152604482015290519081900360640190fd5b600083815260046020526040902060028101805461ffff191661ffff85811691821763ffff0000191662010000918616918202179092551415610f1b576002818101805464ff000000001916600160201b835b0217905550610f5f565b8161ffff168361ffff161115610f48576002810180546000919064ff000000001916600160201b83610f11565b60028101805464ff000000001916600160201b1790555b50505050565b6000546001600160a01b031690565b60028181548110610f8157fe5b6000918252602090912001546001600160a01b0316905081565b60066020526000908152604090205481565b33600081815260066020526040808220805490839055905190929083908381818185875af1925050503d8060008114611002576040519150601f19603f3d011682016040523d82523d6000602084013e611007565b606091505b5050905080611054576040805162461bcd60e51b81526020600482015260146024820152732330b4b632b2103a379039b2b7321022ba3432b960611b604482015290519081900360640190fd5b6040805133815290517ff168305c9d319ba7458a7b66aa7ec9cbd285d0cd4b98a320d7c6a32eeb520ca09181900360200190a15050565b611093611260565b6001600160a01b03166110a4610f65565b6001600160a01b0316146110ed576040805162461bcd60e51b815260206004820181905260248201526000805160206114fd833981519152604482015290519081900360640190fd5b6001600160a01b0381166111325760405162461bcd60e51b81526004018080602001828103825260268152602001806114d76026913960400191505060405180910390fd5b600080546040516001600160a01b03808516939216917f8be0079c531659141344cd1fd0a4f28419497f9722a3daafe3b4186f6b6457e091a3600080546001600160a01b0319166001600160a01b0392909216919091179055565b60018181548110610f8157fe5b60046020908152600091825260409182902080548351601f600260001961010060018616150201909316929092049182018490048402810184019094528084529092918391908301828280156112315780601f1061120657610100808354040283529160200191611231565b820191906000526020600020905b81548152906001019060200180831161121457829003601f168201915b50505050600183015460029093015491929161ffff80821692506201000082041690600160201b900460ff1685565b3390565b61130a816040516024018080602001828103825283818151815260200191508051906020019080838360005b838110156112a8578181015183820152602001611290565b50505050905090810190601f1680156112d55780820380516001836020036101000a031916815260200191505b5060408051601f198184030181529190526020810180516001600160e01b031663104c13eb60e21b17905292506113bb915050565b50565b61077f82826040516024018080602001838152602001828103825284818151815260200191508051906020019080838360005b83811015611358578181015183820152602001611340565b50505050905090810190601f1680156113855780820380516001836020036101000a031916815260200191505b5060408051601f198184030181529190526020810180516001600160e01b03166309710a9d60e41b17905293506113bb92505050565b80516a636f6e736f6c652e6c6f67602083016000808483855afa5050505050565b50805460018160011615610100020316600290046000825580601f10611402575061130a565b601f01602090049060005260206000209081019061130a91906114bc565b508054600082559060005260206000209081019061130a91906114bc565b828054600181600116156101000203166002900490600052602060002090601f016020900481019282601f1061147f57805160ff19168380011785556114ac565b828001600101855582156114ac579182015b828111156114ac578251825591602001919060010190611491565b506114b89291506114bc565b5090565b610e1a91905b808211156114b857600081556001016114c256fe4f776e61626c653a206e6577206f776e657220697320746865207a65726f20616464726573734f776e61626c653a2063616c6c6572206973206e6f7420746865206f776e657250726564696374696f6e73206e6f7420616c6c6f776564206166746572206d617463682073746172742ea264697066735822122040044afe654e4c2625d8bb46eee4e6136fae1251ab6aa3bf97eb517bb999244b64736f6c63430006070033",
  "linkReferences": {},
  "deployedLinkReferences": {}
}