{
  "_format": "hh-sol-artifact-1",
  "contractName": "YourContract",
  "sourceName": "contracts/YourContract.sol",
  "abi": [
    {
      "anonymous": false,
      "inputs": [
        {
          "indexed": false,
          "internalType": "bytes32",
          "name": "fixtureId",
          "type": "bytes32"
        },
        {
          "indexed": false,
          "internalType": "string",
          "name": "gameId",
          "type": "string"
        },
        {
          "indexed": false,
          "internalType": "uint256",
          "name": "date",
          "type": "uint256"
        }
      ],
      "name": "NewFixture",
      "type": "event"
    },
    {
      "anonymous": false,
      "inputs": [
        {
          "indexed": true,
          "internalType": "address",
          "name": "previousOwner",
          "type": "address"
        },
        {
          "indexed": true,
          "internalType": "address",
          "name": "newOwner",
          "type": "address"
        }
      ],
      "name": "OwnershipTransferred",
      "type": "event"
    },
    {
      "anonymous": false,
      "inputs": [
        {
          "indexed": false,
          "internalType": "address",
          "name": "player",
          "type": "address"
        }
      ],
      "name": "WithdrawWinnings",
      "type": "event"
    },
    {
      "inputs": [],
      "name": "balanceOfPot",
      "outputs": [
        {
          "internalType": "uint256",
          "name": "",
          "type": "uint256"
        }
      ],
      "stateMutability": "view",
      "type": "function"
    },
    {
      "inputs": [],
      "name": "calculateWinners",
      "outputs": [],
      "stateMutability": "nonpayable",
      "type": "function"
    },
    {
      "inputs": [
        {
          "internalType": "string",
          "name": "_game",
          "type": "string"
        },
        {
          "internalType": "uint256",
          "name": "_matchDate",
          "type": "uint256"
        }
      ],
      "name": "createFixture",
      "outputs": [
        {
          "internalType": "bytes32",
          "name": "",
          "type": "bytes32"
        }
      ],
      "stateMutability": "nonpayable",
      "type": "function"
    },
    {
      "inputs": [
        {
          "internalType": "uint256",
          "name": "",
          "type": "uint256"
        }
      ],
      "name": "fixtureIds",
      "outputs": [
        {
          "internalType": "bytes32",
          "name": "",
          "type": "bytes32"
        }
      ],
      "stateMutability": "view",
      "type": "function"
    },
    {
      "inputs": [
        {
          "internalType": "bytes32",
          "name": "",
          "type": "bytes32"
        }
      ],
      "name": "fixtures",
      "outputs": [
        {
          "internalType": "string",
          "name": "gameId",
          "type": "string"
        },
        {
          "internalType": "uint256",
          "name": "date",
          "type": "uint256"
        },
        {
          "internalType": "uint16",
          "name": "homeScore",
          "type": "uint16"
        },
        {
          "internalType": "uint16",
          "name": "awayScore",
          "type": "uint16"
        },
        {
          "internalType": "enum YourContract.resultType",
          "name": "result",
          "type": "uint8"
        }
      ],
      "stateMutability": "view",
      "type": "function"
    },
    {
      "inputs": [
        {
          "internalType": "bytes32",
          "name": "_fixtureId",
          "type": "bytes32"
        },
        {
          "internalType": "uint16",
          "name": "_homeScore",
          "type": "uint16"
        },
        {
          "internalType": "uint16",
          "name": "_awayScore",
          "type": "uint16"
        }
      ],
      "name": "makePrediction",
      "outputs": [],
      "stateMutability": "payable",
      "type": "function"
    },
    {
      "inputs": [],
      "name": "owner",
      "outputs": [
        {
          "internalType": "address",
          "name": "",
          "type": "address"
        }
      ],
      "stateMutability": "view",
      "type": "function"
    },
    {
      "inputs": [
        {
          "internalType": "address",
          "name": "",
          "type": "address"
        }
      ],
      "name": "playerToAmountDue",
      "outputs": [
        {
          "internalType": "uint256",
          "name": "",
          "type": "uint256"
        }
      ],
      "stateMutability": "view",
      "type": "function"
    },
    {
      "inputs": [
        {
          "internalType": "address",
          "name": "",
          "type": "address"
        },
        {
          "internalType": "uint256",
          "name": "",
          "type": "uint256"
        }
      ],
      "name": "playerToPrediction",
      "outputs": [
        {
          "internalType": "bytes32",
          "name": "fixtureId",
          "type": "bytes32"
        },
        {
          "internalType": "uint16",
          "name": "homeScore",
          "type": "uint16"
        },
        {
          "internalType": "uint16",
          "name": "awayScore",
          "type": "uint16"
        },
        {
          "internalType": "enum YourContract.resultType",
          "name": "result",
          "type": "uint8"
        }
      ],
      "stateMutability": "view",
      "type": "function"
    },
    {
      "inputs": [
        {
          "internalType": "uint256",
          "name": "",
          "type": "uint256"
        }
      ],
      "name": "players",
      "outputs": [
        {
          "internalType": "address",
          "name": "",
          "type": "address"
        }
      ],
      "stateMutability": "view",
      "type": "function"
    },
    {
      "inputs": [],
      "name": "renounceOwnership",
      "outputs": [],
      "stateMutability": "nonpayable",
      "type": "function"
    },
    {
      "inputs": [
        {
          "internalType": "address",
          "name": "newOwner",
          "type": "address"
        }
      ],
      "name": "transferOwnership",
      "outputs": [],
      "stateMutability": "nonpayable",
      "type": "function"
    },
    {
      "inputs": [
        {
          "internalType": "bytes32",
          "name": "_fixtureId",
          "type": "bytes32"
        },
        {
          "internalType": "uint16",
          "name": "_homeScore",
          "type": "uint16"
        },
        {
          "internalType": "uint16",
          "name": "_awayScore",
          "type": "uint16"
        }
      ],
      "name": "updateResultForMatch",
      "outputs": [],
      "stateMutability": "nonpayable",
      "type": "function"
    },
    {
      "inputs": [
        {
          "internalType": "uint256",
          "name": "",
          "type": "uint256"
        }
      ],
      "name": "winners",
      "outputs": [
        {
          "internalType": "address",
          "name": "",
          "type": "address"
        }
      ],
      "stateMutability": "view",
      "type": "function"
    },
    {
      "inputs": [],
      "name": "withdrawWinnings",
      "outputs": [],
      "stateMutability": "nonpayable",
      "type": "function"
    }
  ],
  "bytecode": "0x608060405260006100176001600160e01b0361006616565b600080546001600160a01b0319166001600160a01b0383169081178255604051929350917f8be0079c531659141344cd1fd0a4f28419497f9722a3daafe3b4186f6b6457e0908290a35061006a565b3390565b61151d806100796000396000f3fe6080604052600436106100e85760003560e01c80638c9cd2aa1161008a578063cc42e83a11610059578063cc42e83a14610398578063f2fde38b146103ad578063f71d96cb146103e0578063f81a70741461040a576100e8565b80638c9cd2aa146102ce5780638da5cb5b1461030a578063a2fb11751461033b578063ba09d9d014610365576100e8565b80636280eb5c116100c65780636280eb5c146101b5578063715018a61461027a578063761897d51461028f578063899e0fc9146102b9576100e8565b8063011bc2e1146100ed5780631bf37d291461010457806353fc7a6a14610186575b600080fd5b3480156100f957600080fd5b506101026104e6565b005b34801561011057600080fd5b5061013d6004803603604081101561012757600080fd5b506001600160a01b038135169060200135610763565b604051808581526020018461ffff1661ffff1681526020018361ffff1661ffff16815260200182600381111561016f57fe5b60ff16815260200194505050505060405180910390f35b6101026004803603606081101561019c57600080fd5b5080359061ffff602082013581169160400135166107b4565b3480156101c157600080fd5b50610268600480360360408110156101d857600080fd5b810190602081018135600160201b8111156101f257600080fd5b82018360208201111561020457600080fd5b803590602001918460018302840111600160201b8311171561022557600080fd5b91908080601f0160208091040260200160405190810160405280939291908181526020018383808284376000920191909152509295505091359250610a24915050565b60408051918252519081900360200190f35b34801561028657600080fd5b50610102610cf3565b34801561029b57600080fd5b50610268600480360360208110156102b257600080fd5b5035610d9f565b3480156102c557600080fd5b50610268610dbd565b3480156102da57600080fd5b50610102600480360360608110156102f157600080fd5b5080359061ffff60208201358116916040013516610dfd565b34801561031657600080fd5b5061031f610f06565b604080516001600160a01b039092168252519081900360200190f35b34801561034757600080fd5b5061031f6004803603602081101561035e57600080fd5b5035610f15565b34801561037157600080fd5b506102686004803603602081101561038857600080fd5b50356001600160a01b0316610f3c565b3480156103a457600080fd5b50610102610f4e565b3480156103b957600080fd5b50610102600480360360208110156103d057600080fd5b50356001600160a01b031661102c565b3480156103ec57600080fd5b5061031f6004803603602081101561040357600080fd5b503561112e565b34801561041657600080fd5b506104346004803603602081101561042d57600080fd5b503561113b565b60405180806020018681526020018561ffff1661ffff1681526020018461ffff1661ffff16815260200183600381111561046a57fe5b60ff168152602001828103825287818151815260200191508051906020019080838360005b838110156104a757818101518382015260200161048f565b50505050905090810190601f1680156104d45780820380516001836020036101000a031916815260200191505b50965050505050505060405180910390f35b6104ee611201565b6001600160a01b03166104ff610f06565b6001600160a01b031614610548576040805162461bcd60e51b8152602060048201819052602482015260008051602061149e833981519152604482015290519081900360640190fd5b6000805b60015481101561067b57600560006001838154811061056757fe5b60009182526020808320909101546001600160a01b03168352820192909252604001812092505b825481101561067257600460008483815481106105a757fe5b906000526020600020906002020160000154815260200190815260200160002060020160049054906101000a900460ff1660038111156105e357fe5b8382815481106105ef57fe5b906000526020600020906002020160010160049054906101000a900460ff16600381111561061957fe5b141561066a5760026001838154811061062e57fe5b60009182526020808320909101548354600181018555938352912090910180546001600160a01b0319166001600160a01b039092169190911790555b60010161058e565b5060010161054c565b5060025460009061068a610dbd565b8161069157fe5b04905060005b6002548110156106e6578160066000600284815481106106b357fe5b60009182526020808320909101546001600160a01b03168352820192909252604001902080549091019055600101610697565b5060005b60035481101561075257600460006003838154811061070557fe5b906000526020600020015481526020019081526020016000206000808201600061072f919061137d565b5060006001828101919091556002909101805464ffffffffff19169055016106ea565b5061075f600360006113c1565b5050565b6005602052816000526040600020818154811061077c57fe5b60009182526020909120600290910201805460019091015490925061ffff80821692506201000082041690600160201b900460ff1684565b600083815260046020526040902060010154610810576040805162461bcd60e51b81526020600482015260166024820152752334bc3a3ab9329024b21034b99034b73b30b634b21760511b604482015290519081900360640190fd5b600083815260046020526040902060010154421061085f5760405162461bcd60e51b815260040180806020018281038252602a8152602001806114be602a913960400191505060405180910390fd5b66038d7ea4c6800034116108ba576040805162461bcd60e51b815260206004820152601a60248201527f4f6f7073202d20706c656173652070617920746f20706c617921000000000000604482015290519081900360640190fd5b33600090815260056020526040902054610910576001805480820182556000919091527fb10e2d527612073b26eecdfd717e6a320cf44b4afac2b0732d9fcbe2b7fa0cf60180546001600160a01b031916331790555b60008161ffff168361ffff16141561092a57506002610946565b8161ffff168361ffff16111561094257506000610946565b5060015b60056000336001600160a01b03166001600160a01b0316815260200190815260200160002060405180608001604052808681526020018561ffff1681526020018461ffff16815260200183600381111561099c57fe5b905281546001818101845560009384526020938490208351600290930201918255928201519281018054604084015161ffff908116620100000263ffff0000199190961661ffff19909216919091171693909317808455606083015192939192919064ff000000001916600160201b836003811115610a1757fe5b0217905550505050505050565b6000610a2e611201565b6001600160a01b0316610a3f610f06565b6001600160a01b031614610a88576040805162461bcd60e51b8152602060048201819052602482015260008051602061149e833981519152604482015290519081900360640190fd5b600083836040516020018080602001838152602001828103825284818151815260200191508051906020019080838360005b83811015610ad2578181015183820152602001610aba565b50505050905090810190601f168015610aff5780820380516001836020036101000a031916815260200191505b5060408051808303601f19018152828252805160209182012060a0840183528b84528184018b9052600084840181905260608501819052600360808601528181526004835292909220835180519399509397509550610b66945085935091909101906113df565b50602082015160018201556040820151600282018054606085015161ffff908116620100000263ffff0000199190941661ffff199092169190911716919091178082556080840151919064ff000000001916600160201b836003811115610bc957fe5b0217905550506003805460018101825560009182527fc2575a0e9e593c00f959f8c92f12db2869c3395a3b0502d05e2516446f71f85b01839055604080518481529081018690526060602082810182815289519284019290925288517f7f97e7b5cbc9633e571cea757f009db12d73e8de0510aaad1531ee86d46f292d955086948a948a94909390926080850192918701918190849084905b83811015610c7a578181015183820152602001610c62565b50505050905090810190601f168015610ca75780820380516001836020036101000a031916815260200191505b5094505050505060405180910390a1610cec6040518060400160405280601581526020017474686973206973206120636f6e736f6c65206c6f6760581b815250611205565b9392505050565b610cfb611201565b6001600160a01b0316610d0c610f06565b6001600160a01b031614610d55576040805162461bcd60e51b8152602060048201819052602482015260008051602061149e833981519152604482015290519081900360640190fd5b600080546040516001600160a01b03909116907f8be0079c531659141344cd1fd0a4f28419497f9722a3daafe3b4186f6b6457e0908390a3600080546001600160a01b0319169055565b60038181548110610dac57fe5b600091825260209091200154905081565b6000610df760405180604001604052806016815260200175436f6e74726163742062616c616e636520697320257360501b815250476112ae565b50475b90565b610e05611201565b6001600160a01b0316610e16610f06565b6001600160a01b031614610e5f576040805162461bcd60e51b8152602060048201819052602482015260008051602061149e833981519152604482015290519081900360640190fd5b600083815260046020526040902060028101805461ffff191661ffff85811691821763ffff0000191662010000918616918202179092551415610ebc576002818101805464ff000000001916600160201b835b0217905550610f00565b8161ffff168361ffff161115610ee9576002810180546000919064ff000000001916600160201b83610eb2565b60028101805464ff000000001916600160201b1790555b50505050565b6000546001600160a01b031690565b60028181548110610f2257fe5b6000918252602090912001546001600160a01b0316905081565b60066020526000908152604090205481565b33600081815260066020526040808220805490839055905190929083908381818185875af1925050503d8060008114610fa3576040519150601f19603f3d011682016040523d82523d6000602084013e610fa8565b606091505b5050905080610ff5576040805162461bcd60e51b81526020600482015260146024820152732330b4b632b2103a379039b2b7321022ba3432b960611b604482015290519081900360640190fd5b6040805133815290517ff168305c9d319ba7458a7b66aa7ec9cbd285d0cd4b98a320d7c6a32eeb520ca09181900360200190a15050565b611034611201565b6001600160a01b0316611045610f06565b6001600160a01b03161461108e576040805162461bcd60e51b8152602060048201819052602482015260008051602061149e833981519152604482015290519081900360640190fd5b6001600160a01b0381166110d35760405162461bcd60e51b81526004018080602001828103825260268152602001806114786026913960400191505060405180910390fd5b600080546040516001600160a01b03808516939216917f8be0079c531659141344cd1fd0a4f28419497f9722a3daafe3b4186f6b6457e091a3600080546001600160a01b0319166001600160a01b0392909216919091179055565b60018181548110610f2257fe5b60046020908152600091825260409182902080548351601f600260001961010060018616150201909316929092049182018490048402810184019094528084529092918391908301828280156111d25780601f106111a7576101008083540402835291602001916111d2565b820191906000526020600020905b8154815290600101906020018083116111b557829003601f168201915b50505050600183015460029093015491929161ffff80821692506201000082041690600160201b900460ff1685565b3390565b6112ab816040516024018080602001828103825283818151815260200191508051906020019080838360005b83811015611249578181015183820152602001611231565b50505050905090810190601f1680156112765780820380516001836020036101000a031916815260200191505b5060408051601f198184030181529190526020810180516001600160e01b031663104c13eb60e21b179052925061135c915050565b50565b61075f82826040516024018080602001838152602001828103825284818151815260200191508051906020019080838360005b838110156112f95781810151838201526020016112e1565b50505050905090810190601f1680156113265780820380516001836020036101000a031916815260200191505b5060408051601f198184030181529190526020810180516001600160e01b03166309710a9d60e41b179052935061135c92505050565b80516a636f6e736f6c652e6c6f67602083016000808483855afa5050505050565b50805460018160011615610100020316600290046000825580601f106113a357506112ab565b601f0160209004906000526020600020908101906112ab919061145d565b50805460008255906000526020600020908101906112ab919061145d565b828054600181600116156101000203166002900490600052602060002090601f016020900481019282601f1061142057805160ff191683800117855561144d565b8280016001018555821561144d579182015b8281111561144d578251825591602001919060010190611432565b5061145992915061145d565b5090565b610dfa91905b80821115611459576000815560010161146356fe4f776e61626c653a206e6577206f776e657220697320746865207a65726f20616464726573734f776e61626c653a2063616c6c6572206973206e6f7420746865206f776e657250726564696374696f6e73206e6f7420616c6c6f776564206166746572206d617463682073746172742ea2646970667358221220a2d0ac27fc6cb9afbaf43b94fea17aa165c8eed96664be618e24ea31bc4cec3764736f6c63430006070033",
  "linkReferences": {},
  "deployedLinkReferences": {}
}